{
  "_format": "hh-sol-artifact-1",
  "contractName": "BullERC20Token",
  "sourceName": "contracts/BullToken.sol",
  "abi": [
    {
      "inputs": [],
      "stateMutability": "nonpayable",
      "type": "constructor"
    },
    {
      "anonymous": false,
      "inputs": [
        {
          "indexed": true,
          "internalType": "address",
          "name": "owner",
          "type": "address"
        },
        {
          "indexed": true,
          "internalType": "address",
          "name": "spender",
          "type": "address"
        },
        {
          "indexed": false,
          "internalType": "uint256",
          "name": "value",
          "type": "uint256"
        }
      ],
      "name": "Approval",
      "type": "event"
    },
    {
      "anonymous": false,
      "inputs": [
        {
          "indexed": true,
          "internalType": "address",
          "name": "previousOwner",
          "type": "address"
        },
        {
          "indexed": true,
          "internalType": "address",
          "name": "newOwner",
          "type": "address"
        }
      ],
      "name": "OwnershipTransferred",
      "type": "event"
    },
    {
      "anonymous": false,
      "inputs": [
        {
          "indexed": true,
          "internalType": "address",
          "name": "from",
          "type": "address"
        },
        {
          "indexed": true,
          "internalType": "address",
          "name": "to",
          "type": "address"
        },
        {
          "indexed": false,
          "internalType": "uint256",
          "name": "value",
          "type": "uint256"
        }
      ],
      "name": "Transfer",
      "type": "event"
    },
    {
      "inputs": [
        {
          "internalType": "address",
          "name": "bannedAddress",
          "type": "address"
        }
      ],
      "name": "addBlackList",
      "outputs": [],
      "stateMutability": "nonpayable",
      "type": "function"
    },
    {
      "inputs": [
        {
          "internalType": "address",
          "name": "owner",
          "type": "address"
        },
        {
          "internalType": "address",
          "name": "spender",
          "type": "address"
        }
      ],
      "name": "allowance",
      "outputs": [
        {
          "internalType": "uint256",
          "name": "",
          "type": "uint256"
        }
      ],
      "stateMutability": "view",
      "type": "function"
    },
    {
      "inputs": [
        {
          "internalType": "address",
          "name": "spender",
          "type": "address"
        },
        {
          "internalType": "uint256",
          "name": "amount",
          "type": "uint256"
        }
      ],
      "name": "approve",
      "outputs": [
        {
          "internalType": "bool",
          "name": "",
          "type": "bool"
        }
      ],
      "stateMutability": "nonpayable",
      "type": "function"
    },
    {
      "inputs": [
        {
          "internalType": "address",
          "name": "account",
          "type": "address"
        }
      ],
      "name": "balanceOf",
      "outputs": [
        {
          "internalType": "uint256",
          "name": "",
          "type": "uint256"
        }
      ],
      "stateMutability": "view",
      "type": "function"
    },
    {
      "inputs": [
        {
          "internalType": "uint256",
          "name": "amount",
          "type": "uint256"
        }
      ],
      "name": "burn",
      "outputs": [],
      "stateMutability": "nonpayable",
      "type": "function"
    },
    {
      "inputs": [
        {
          "internalType": "uint256",
          "name": "tokenAmount",
          "type": "uint256"
        }
      ],
      "name": "buy",
      "outputs": [],
      "stateMutability": "payable",
      "type": "function"
    },
    {
      "inputs": [
        {
          "internalType": "string",
          "name": "name",
          "type": "string"
        }
      ],
      "name": "claimReward",
      "outputs": [],
      "stateMutability": "payable",
      "type": "function"
    },
    {
      "inputs": [
        {
          "internalType": "string",
          "name": "treeName",
          "type": "string"
        }
      ],
      "name": "createTree",
      "outputs": [],
      "stateMutability": "nonpayable",
      "type": "function"
    },
    {
      "inputs": [],
      "name": "deadWallet",
      "outputs": [
        {
          "internalType": "address",
          "name": "",
          "type": "address"
        }
      ],
      "stateMutability": "view",
      "type": "function"
    },
    {
      "inputs": [],
      "name": "decimals",
      "outputs": [
        {
          "internalType": "uint8",
          "name": "",
          "type": "uint8"
        }
      ],
      "stateMutability": "view",
      "type": "function"
    },
    {
      "inputs": [
        {
          "internalType": "address",
          "name": "account",
          "type": "address"
        }
      ],
      "name": "getClaimableRewards",
      "outputs": [
        {
          "internalType": "uint256",
          "name": "",
          "type": "uint256"
        }
      ],
      "stateMutability": "view",
      "type": "function"
    },
    {
      "inputs": [],
      "name": "getLatestPrice",
      "outputs": [
        {
          "internalType": "uint256",
          "name": "",
          "type": "uint256"
        }
      ],
      "stateMutability": "view",
      "type": "function"
    },
    {
      "inputs": [
        {
          "internalType": "string",
          "name": "name",
          "type": "string"
        }
      ],
      "name": "getMaintenanceDeadlineByName",
      "outputs": [
        {
          "internalType": "uint256",
          "name": "",
          "type": "uint256"
        }
      ],
      "stateMutability": "view",
      "type": "function"
    },
    {
      "inputs": [],
      "name": "getMaintenanceDuration",
      "outputs": [
        {
          "internalType": "uint256",
          "name": "",
          "type": "uint256"
        }
      ],
      "stateMutability": "view",
      "type": "function"
    },
    {
      "inputs": [
        {
          "internalType": "address",
          "name": "account",
          "type": "address"
        }
      ],
      "name": "getTreeCount",
      "outputs": [
        {
          "internalType": "uint256",
          "name": "",
          "type": "uint256"
        }
      ],
      "stateMutability": "view",
      "type": "function"
    },
    {
      "inputs": [
        {
          "internalType": "string",
          "name": "name",
          "type": "string"
        }
      ],
      "name": "getTreeStatus",
      "outputs": [
        {
          "internalType": "bool",
          "name": "",
          "type": "bool"
        }
      ],
      "stateMutability": "view",
      "type": "function"
    },
    {
      "inputs": [
        {
          "internalType": "address",
          "name": "account",
          "type": "address"
        }
      ],
      "name": "getUserTrees",
      "outputs": [
        {
          "components": [
            {
              "internalType": "string",
              "name": "treeName",
              "type": "string"
            },
            {
              "internalType": "uint256",
              "name": "creationTime",
              "type": "uint256"
            },
            {
              "internalType": "uint256",
              "name": "pendingReward",
              "type": "uint256"
            },
            {
              "internalType": "uint256",
              "name": "maintenanceDeadline",
              "type": "uint256"
            }
          ],
          "internalType": "struct BullERC20Token.TreeEntity[]",
          "name": "",
          "type": "tuple[]"
        }
      ],
      "stateMutability": "view",
      "type": "function"
    },
    {
      "inputs": [
        {
          "internalType": "address",
          "name": "account",
          "type": "address"
        },
        {
          "internalType": "string",
          "name": "name",
          "type": "string"
        }
      ],
      "name": "isNameExist",
      "outputs": [
        {
          "internalType": "bool",
          "name": "",
          "type": "bool"
        }
      ],
      "stateMutability": "view",
      "type": "function"
    },
    {
      "inputs": [
        {
          "internalType": "uint256",
          "name": "tokenAmount",
          "type": "uint256"
        }
      ],
      "name": "makeLiquidity",
      "outputs": [],
      "stateMutability": "payable",
      "type": "function"
    },
    {
      "inputs": [],
      "name": "name",
      "outputs": [
        {
          "internalType": "string",
          "name": "",
          "type": "string"
        }
      ],
      "stateMutability": "view",
      "type": "function"
    },
    {
      "inputs": [],
      "name": "owner",
      "outputs": [
        {
          "internalType": "address",
          "name": "",
          "type": "address"
        }
      ],
      "stateMutability": "view",
      "type": "function"
    },
    {
      "inputs": [
        {
          "internalType": "string",
          "name": "name",
          "type": "string"
        }
      ],
      "name": "payMaintenance",
      "outputs": [],
      "stateMutability": "payable",
      "type": "function"
    },
    {
      "inputs": [],
      "name": "payMaintenanceAll",
      "outputs": [],
      "stateMutability": "payable",
      "type": "function"
    },
    {
      "inputs": [],
      "name": "renounceOwnership",
      "outputs": [],
      "stateMutability": "nonpayable",
      "type": "function"
    },
    {
      "inputs": [
        {
          "internalType": "uint256",
          "name": "tokenAmount",
          "type": "uint256"
        }
      ],
      "name": "sell",
      "outputs": [],
      "stateMutability": "nonpayable",
      "type": "function"
    },
    {
      "inputs": [
        {
          "internalType": "string[]",
          "name": "treeNames",
          "type": "string[]"
        },
        {
          "internalType": "uint256",
          "name": "rewardAmount",
          "type": "uint256"
        }
      ],
      "name": "setCowBoyStatus",
      "outputs": [],
      "stateMutability": "nonpayable",
      "type": "function"
    },
    {
      "inputs": [
        {
          "internalType": "address",
          "name": "feedAddress",
          "type": "address"
        }
      ],
      "name": "setPriceFeedAddress",
      "outputs": [],
      "stateMutability": "nonpayable",
      "type": "function"
    },
    {
      "inputs": [
        {
          "internalType": "address",
          "name": "managerAddress",
          "type": "address"
        }
      ],
      "name": "setTreeManager",
      "outputs": [],
      "stateMutability": "nonpayable",
      "type": "function"
    },
    {
      "inputs": [],
      "name": "symbol",
      "outputs": [
        {
          "internalType": "string",
          "name": "",
          "type": "string"
        }
      ],
      "stateMutability": "view",
      "type": "function"
    },
    {
      "inputs": [],
      "name": "totalSupply",
      "outputs": [
        {
          "internalType": "uint256",
          "name": "",
          "type": "uint256"
        }
      ],
      "stateMutability": "view",
      "type": "function"
    },
    {
      "inputs": [
        {
          "internalType": "address",
          "name": "recipient",
          "type": "address"
        },
        {
          "internalType": "uint256",
          "name": "amount",
          "type": "uint256"
        }
      ],
      "name": "transfer",
      "outputs": [
        {
          "internalType": "bool",
          "name": "",
          "type": "bool"
        }
      ],
      "stateMutability": "nonpayable",
      "type": "function"
    },
    {
      "inputs": [
        {
          "internalType": "address",
          "name": "sender",
          "type": "address"
        },
        {
          "internalType": "address",
          "name": "recipient",
          "type": "address"
        },
        {
          "internalType": "uint256",
          "name": "amount",
          "type": "uint256"
        }
      ],
      "name": "transferFrom",
      "outputs": [
        {
          "internalType": "bool",
          "name": "",
          "type": "bool"
        }
      ],
      "stateMutability": "nonpayable",
      "type": "function"
    },
    {
      "inputs": [
        {
          "internalType": "address",
          "name": "newOwner",
          "type": "address"
        }
      ],
      "name": "transferOwnership",
      "outputs": [],
      "stateMutability": "nonpayable",
      "type": "function"
    },
    {
      "inputs": [
        {
          "internalType": "uint256",
          "name": "fee",
          "type": "uint256"
        }
      ],
      "name": "udpateMaintenanceFee",
      "outputs": [],
      "stateMutability": "nonpayable",
      "type": "function"
    },
    {
      "inputs": [],
      "name": "uniswapV2Pair",
      "outputs": [
        {
          "internalType": "address",
          "name": "",
          "type": "address"
        }
      ],
      "stateMutability": "view",
      "type": "function"
    },
    {
      "inputs": [],
      "name": "uniswapV2Router",
      "outputs": [
        {
          "internalType": "contract IUniswapV2Router02",
          "name": "",
          "type": "address"
        }
      ],
      "stateMutability": "view",
      "type": "function"
    },
    {
      "inputs": [
        {
          "internalType": "uint256",
          "name": "duration",
          "type": "uint256"
        }
      ],
      "name": "updateClaimDuration",
      "outputs": [],
      "stateMutability": "nonpayable",
      "type": "function"
    },
    {
      "inputs": [
        {
          "internalType": "uint256",
          "name": "fee",
          "type": "uint256"
        }
      ],
      "name": "updateClaimFee",
      "outputs": [],
      "stateMutability": "nonpayable",
      "type": "function"
    },
    {
      "inputs": [
        {
          "internalType": "uint256",
          "name": "duration",
          "type": "uint256"
        }
      ],
      "name": "updateMaintenanceDuration",
      "outputs": [],
      "stateMutability": "nonpayable",
      "type": "function"
    },
    {
      "inputs": [],
      "name": "withDraw",
      "outputs": [],
      "stateMutability": "nonpayable",
      "type": "function"
    },
    {
      "inputs": [
        {
          "internalType": "uint256",
          "name": "amount",
          "type": "uint256"
        }
      ],
      "name": "withDraw",
      "outputs": [],
      "stateMutability": "nonpayable",
      "type": "function"
    },
    {
      "stateMutability": "payable",
      "type": "receive"
    }
  ],
  "bytecode": "0x610100604052600c60c08190526b42756c6c2046696e616e636560a01b60e090815262000030916003919062000422565b50604080518082019091526004808252631095531360e21b60209092019182526200005c918162000422565b506005805460ff1916601217908190556200007c9060ff16600a62000579565b6200008b90620f424062000664565b600655600554620000a19060ff16600a62000579565b620000ae90600a62000664565b600755600a60088190556009819055805460ff191660011790556283d600600b55600c80546001600160a01b031990811673b86cae9df99911d29122209fafcccc18a358c68117909155600d805482167304a0c09354f47b2f1899cc4328ede54047b5505e179055600e805490911661dead1790553480156200013057600080fd5b50620001456200013f620003ab565b620003af565b6200017c6064620001686007600654620003ff60201b620028581790919060201c565b6200041460201b620028641790919060201c565b30600090815260016020908152604090912091909155600654620001ac91600a906200286462000414821b17901c565b60016000620001ba620003ab565b6001600160a01b03166001600160a01b03168152602001908152602001600020819055506000737a250d5630b4cf539739df2c5dacb4c659f2488d9050806001600160a01b031663c45a01556040518163ffffffff1660e01b815260040160206040518083038186803b1580156200023157600080fd5b505afa15801562000246573d6000803e3d6000fd5b505050506040513d601f19601f820116820180604052508101906200026c9190620004c8565b6001600160a01b031663c9c6539630836001600160a01b031663ad5c46486040518163ffffffff1660e01b815260040160206040518083038186803b158015620002b557600080fd5b505afa158015620002ca573d6000803e3d6000fd5b505050506040513d601f19601f82011682018060405250810190620002f09190620004c8565b6040518363ffffffff1660e01b81526004016200030f929190620004f1565b602060405180830381600087803b1580156200032a57600080fd5b505af11580156200033f573d6000803e3d6000fd5b505050506040513d601f19601f82011682018060405250810190620003659190620004c8565b6001600160601b0319606091821b811660a05291901b16608052600f80546001600160a01b031916730715a7794a1dc8e42615f059dd6e406a6594651a179055620006d9565b3390565b600080546001600160a01b038381166001600160a01b0319831681178455604051919092169283917f8be0079c531659141344cd1fd0a4f28419497f9722a3daafe3b4186f6b6457e09190a35050565b60006200040d828462000664565b9392505050565b60006200040d82846200050b565b828054620004309062000686565b90600052602060002090601f0160209004810192826200045457600085556200049f565b82601f106200046f57805160ff19168380011785556200049f565b828001600101855582156200049f579182015b828111156200049f57825182559160200191906001019062000482565b50620004ad929150620004b1565b5090565b5b80821115620004ad5760008155600101620004b2565b600060208284031215620004da578081fd5b81516001600160a01b03811681146200040d578182fd5b6001600160a01b0392831681529116602082015260400190565b6000826200052757634e487b7160e01b81526012600452602481fd5b500490565b80825b600180861162000540575062000570565b818704821115620005555762000555620006c3565b808616156200056357918102915b9490941c9380026200052f565b94509492505050565b60006200040d60001960ff85168460008262000598575060016200040d565b81620005a7575060006200040d565b8160018114620005c05760028114620005cb57620005ff565b60019150506200040d565b60ff841115620005df57620005df620006c3565b6001841b915084821115620005f857620005f8620006c3565b506200040d565b5060208310610133831016604e8410600b841016171562000637575081810a83811115620006315762000631620006c3565b6200040d565b6200064684848460016200052c565b8086048211156200065b576200065b620006c3565b02949350505050565b6000816000190483118215151615620006815762000681620006c3565b500290565b6002810460018216806200069b57607f821691505b60208210811415620006bd57634e487b7160e01b600052602260045260246000fd5b50919050565b634e487b7160e01b600052601160045260246000fd5b60805160601c60a05160601c613b326200074b6000396000610c79015260008181610950015281816115c6015281816115ed0152818161211a015281816121a40152818161226c01528181612b6801528181612c3e01528181612c7a01528181612cbe0152612ce50152613b326000f3fe6080604052600436106102495760003560e01c8063808b706a11610139578063b20b8403116100b6578063cb456aa11161007a578063cb456aa11461063e578063d96a094a1461065e578063dd62ed3e14610671578063e4849b3214610691578063f2fde38b146106b1578063f9ddc348146106d157610250565b8063b20b8403146105ab578063b539e5ec146105cb578063bb8c9797146105eb578063bc405e7c146105fe578063c1faa4211461061e57610250565b806395d89b41116100fd57806395d89b411461053b578063997bb4a4146105505780639e289ba314610570578063a9059cbb14610578578063b1dc85e01461059857610250565b8063808b706a146104c757806385141a77146104dc57806387fe57b9146104f15780638da5cb5b146105115780638e15f4731461052657610250565b8063313ce567116101c75780635b497a8d1161018b5780635b497a8d1461043f57806361c59dce1461045257806370a0823114610472578063715018a6146104925780637dab3cf7146104a757610250565b8063313ce567146103a857806342966c68146103ca57806342c05999146103ea57806349bd5a5e1461040a5780634faf131d1461041f57610250565b806314174f331161020e57806314174f33146103045780631694505e1461032457806318160ddd1461034657806323b872dd14610368578063308e401e1461038857610250565b8062cf5db41461025557806306fdde0314610277578063095ea7b3146102a25780630ecb93c0146102cf5780630fdb1c10146102ef57610250565b3661025057005b600080fd5b34801561026157600080fd5b50610275610270366004612e0d565b6106fe565b005b34801561028357600080fd5b5061028c610768565b60405161029991906132dd565b60405180910390f35b3480156102ae57600080fd5b506102c26102bd366004612f0b565b6107fa565b60405161029991906132d2565b3480156102db57600080fd5b506102756102ea366004612e0d565b610817565b3480156102fb57600080fd5b5061027561087a565b34801561031057600080fd5b5061027561031f3660046130a9565b6108db565b34801561033057600080fd5b5061033961094e565b6040516102999190613132565b34801561035257600080fd5b5061035b610972565b60405161029991906137b9565b34801561037457600080fd5b506102c2610383366004612e7d565b610978565b34801561039457600080fd5b5061035b6103a3366004612e0d565b610a0a565b3480156103b457600080fd5b506103bd610ad4565b6040516102999190613832565b3480156103d657600080fd5b506102756103e53660046130a9565b610add565b3480156103f657600080fd5b50610275610405366004612f36565b610b6f565b34801561041657600080fd5b50610339610c77565b34801561042b57600080fd5b506102c261043a366004612ebd565b610c9b565b61027561044d366004612ffb565b610d65565b34801561045e57600080fd5b5061027561046d366004612e0d565b610f55565b34801561047e57600080fd5b5061035b61048d366004612e0d565b610fb6565b34801561049e57600080fd5b50610275610fd1565b3480156104b357600080fd5b5061035b6104c2366004612e0d565b61101c565b3480156104d357600080fd5b5061035b611053565b3480156104e857600080fd5b50610339611126565b3480156104fd57600080fd5b5061027561050c3660046130a9565b611135565b34801561051d57600080fd5b506103396111d2565b34801561053257600080fd5b5061035b6111e1565b34801561054757600080fd5b5061028c611233565b34801561055c57600080fd5b5061035b61056b366004612ffb565b611242565b610275611317565b34801561058457600080fd5b506102c2610593366004612f0b565b6115a5565b6102756105a63660046130a9565b6115b9565b3480156105b757600080fd5b506102756105c63660046130a9565b6116ad565b3480156105d757600080fd5b506102756105e6366004612ffb565b61171c565b6102756105f9366004612ffb565b6118ac565b34801561060a57600080fd5b506102c2610619366004612ffb565b611d6e565b34801561062a57600080fd5b506102756106393660046130a9565b611df1565b34801561064a57600080fd5b506102756106593660046130a9565b611e60565b61027561066c3660046130a9565b611ecf565b34801561067d57600080fd5b5061035b61068c366004612e45565b611ff4565b34801561069d57600080fd5b506102756106ac3660046130a9565b61201f565b3480156106bd57600080fd5b506102756106cc366004612e0d565b6122f5565b3480156106dd57600080fd5b506106f16106ec366004612e0d565b612363565b604051610299919061324a565b610706612870565b6001600160a01b03166107176111d2565b6001600160a01b0316146107465760405162461bcd60e51b815260040161073d90613573565b60405180910390fd5b600f80546001600160a01b0319166001600160a01b0392909216919091179055565b60606003805461077790613a43565b80601f01602080910402602001604051908101604052809291908181526020018280546107a390613a43565b80156107f05780601f106107c5576101008083540402835291602001916107f0565b820191906000526020600020905b8154815290600101906020018083116107d357829003601f168201915b5050505050905090565b600061080e610807612870565b8484612874565b50600192915050565b61081f612870565b6001600160a01b03166108306111d2565b6001600160a01b0316146108565760405162461bcd60e51b815260040161073d90613573565b6001600160a01b03166000908152601160205260409020805460ff19166001179055565b610882612870565b6001600160a01b03166108936111d2565b6001600160a01b0316146108b95760405162461bcd60e51b815260040161073d90613573565b60006108c430610fb6565b90506108d8306108d2612870565b83612928565b50565b6108e3612870565b6001600160a01b03166108f46111d2565b6001600160a01b03161461091a5760405162461bcd60e51b815260040161073d90613573565b8061092430610fb6565b10156109425760405162461bcd60e51b815260040161073d906134c8565b6108d8306108d2612870565b7f000000000000000000000000000000000000000000000000000000000000000081565b60065490565b6000610985848484612928565b6001600160a01b0384166000908152600260205260408120816109a6612870565b6001600160a01b03166001600160a01b03168152602001908152602001600020549050828110156109e95760405162461bcd60e51b815260040161073d9061352b565b6109fd856109f5612870565b858403612874565b60019150505b9392505050565b600060116000610a18612870565b6001600160a01b0316815260208101919091526040016000205460ff1615610a525760405162461bcd60e51b815260040161073d90613650565b60105460405163299fc29760e11b815242916001600160a01b03169063533f852e90610a8490869085906004016131d5565b60206040518083038186803b158015610a9c57600080fd5b505afa158015610ab0573d6000803e3d6000fd5b505050506040513d601f19601f82011682018060405250810190610a0391906130c1565b60055460ff1690565b610ae5612870565b6001600160a01b0316610af66111d2565b6001600160a01b031614610b1c5760405162461bcd60e51b815260040161073d90613573565b80610b2630610fb6565b1015610b445760405162461bcd60e51b815260040161073d906135a8565b600e54610b5c9030906001600160a01b031683612928565b600654610b6990826129ef565b60065550565b610b77612870565b6001600160a01b0316610b886111d2565b6001600160a01b031614610bae5760405162461bcd60e51b815260040161073d90613573565b8151429060005b8161ffff168161ffff161015610c70576010546001600160a01b031663f66225d3610bde612870565b878461ffff1681518110610c0257634e487b7160e01b600052603260045260246000fd5b602002602001015187876040518563ffffffff1660e01b8152600401610c2b949392919061319e565b600060405180830381600087803b158015610c4557600080fd5b505af1158015610c59573d6000803e3d6000fd5b505050508080610c6890613a7e565b915050610bb5565b5050505050565b7f000000000000000000000000000000000000000000000000000000000000000081565b600060116000610ca9612870565b6001600160a01b0316815260208101919091526040016000205460ff1615610ce35760405162461bcd60e51b815260040161073d90613650565b601054604051634faf131d60e01b81526001600160a01b0390911690634faf131d90610d159086908690600401613146565b60206040518083038186803b158015610d2d57600080fd5b505afa158015610d41573d6000803e3d6000fd5b505050506040513d601f19601f82011682018060405250810190610a039190612fdb565b60116000610d71612870565b6001600160a01b0316815260208101919091526040016000205460ff1615610dab5760405162461bcd60e51b815260040161073d90613650565b6000610db5612870565b6001600160a01b03161415610ddc5760405162461bcd60e51b815260040161073d9061376e565b6010546040805163fa272e0560e01b815290516000926001600160a01b03169163fa272e05916004808301926020929190829003018186803b158015610e2157600080fd5b505afa158015610e35573d6000803e3d6000fd5b505050506040513d601f19601f82011682018060405250810190610e5991906130c1565b90506000610e656111e1565b90506000610e8882610e82856a52b7d2dcc80cd2e4000000612858565b90612864565b905080341015610eaa5760405162461bcd60e51b815260040161073d9061349e565b6010546001600160a01b031663bdadf82c610ec3612870565b86426040518463ffffffff1660e01b8152600401610ee39392919061316a565b600060405180830381600087803b158015610efd57600080fd5b505af1158015610f11573d6000803e3d6000fd5b50505050610f1d6111d2565b6001600160a01b03166108fc349081150290604051600060405180830381858888f19350505050158015610c70573d6000803e3d6000fd5b610f5d612870565b6001600160a01b0316610f6e6111d2565b6001600160a01b031614610f945760405162461bcd60e51b815260040161073d90613573565b601080546001600160a01b0319166001600160a01b0392909216919091179055565b6001600160a01b031660009081526001602052604090205490565b610fd9612870565b6001600160a01b0316610fea6111d2565b6001600160a01b0316146110105760405162461bcd60e51b815260040161073d90613573565b61101a60006129fb565b565b601054604051639618a27b60e01b815260009142916001600160a01b0390911690639618a27b90610a8490869085906004016131d5565b600060116000611061612870565b6001600160a01b0316815260208101919091526040016000205460ff161561109b5760405162461bcd60e51b815260040161073d90613650565b601060009054906101000a90046001600160a01b03166001600160a01b031663808b706a6040518163ffffffff1660e01b815260040160206040518083038186803b1580156110e957600080fd5b505afa1580156110fd573d6000803e3d6000fd5b505050506040513d601f19601f8201168201806040525081019061112191906130c1565b905090565b600e546001600160a01b031681565b61113d612870565b6001600160a01b031661114e6111d2565b6001600160a01b0316146111745760405162461bcd60e51b815260040161073d90613573565b6010546040516387fe57b960e01b81526001600160a01b03909116906387fe57b9906111a49084906004016137b9565b600060405180830381600087803b1580156111be57600080fd5b505af1158015610c70573d6000803e3d6000fd5b6000546001600160a01b031690565b6000601160006111ef612870565b6001600160a01b0316815260208101919091526040016000205460ff16156112295760405162461bcd60e51b815260040161073d90613650565b50643fd85d241390565b60606004805461077790613a43565b600060116000611250612870565b6001600160a01b0316815260208101919091526040016000205460ff161561128a5760405162461bcd60e51b815260040161073d90613650565b6010546001600160a01b03166343e2c0026112a3612870565b846040518363ffffffff1660e01b81526004016112c1929190613146565b60206040518083038186803b1580156112d957600080fd5b505afa1580156112ed573d6000803e3d6000fd5b505050506040513d601f19601f8201168201806040525081019061131191906130c1565b92915050565b60116000611323612870565b6001600160a01b0316815260208101919091526040016000205460ff161561135d5760405162461bcd60e51b815260040161073d90613650565b6000611367612870565b6001600160a01b0316141561138e5760405162461bcd60e51b815260040161073d9061376e565b6010546040805163fa272e0560e01b8152905142926000926001600160a01b039091169163fa272e0591600480820192602092909190829003018186803b1580156113d857600080fd5b505afa1580156113ec573d6000803e3d6000fd5b505050506040513d601f19601f8201168201806040525081019061141091906130c1565b9050600061141c6111e1565b9050600061143982610e82856a52b7d2dcc80cd2e4000000612858565b6010549091506000906001600160a01b0316639618a27b611458612870565b876040518363ffffffff1660e01b81526004016114769291906131d5565b60206040518083038186803b15801561148e57600080fd5b505afa1580156114a2573d6000803e3d6000fd5b505050506040513d601f19601f820116820180604052508101906114c691906130c1565b90506114d28282612858565b9150813410156114f45760405162461bcd60e51b815260040161073d9061349e565b6010546001600160a01b031663b906d0d061150d612870565b876040518363ffffffff1660e01b815260040161152b9291906131d5565b600060405180830381600087803b15801561154557600080fd5b505af1158015611559573d6000803e3d6000fd5b505050506115656111d2565b6001600160a01b03166108fc349081150290604051600060405180830381858888f1935050505015801561159d573d6000803e3d6000fd5b505050505050565b600061080e6115b2612870565b8484612928565b6115eb6115c4612870565b7f000000000000000000000000000000000000000000000000000000000000000083612874565b7f00000000000000000000000000000000000000000000000000000000000000006001600160a01b031663f305d719343084600080611628612870565b61163442610168613892565b6040518863ffffffff1660e01b8152600401611655969594939291906131ee565b6060604051808303818588803b15801561166e57600080fd5b505af1158015611682573d6000803e3d6000fd5b50505050506040513d601f19601f820116820180604052508101906116a791906130d9565b50505050565b6116b5612870565b6001600160a01b03166116c66111d2565b6001600160a01b0316146116ec5760405162461bcd60e51b815260040161073d90613573565b60105460405163b20b840360e01b81526001600160a01b039091169063b20b8403906111a49084906004016137b9565b60116000611728612870565b6001600160a01b0316815260208101919091526040016000205460ff16156117625760405162461bcd60e51b815260040161073d90613650565b600061176c612870565b6001600160a01b031614156117935760405162461bcd60e51b815260040161073d906135d5565b6007546117a161048d612870565b10156117bf5760405162461bcd60e51b815260040161073d906134f4565b426117d46117cb612870565b30600754612928565b6005546117f9906117e99060ff16600a613910565b6117f49060016139e1565b612a4b565b60055461181e9061180e9060ff16600a613910565b6118199060026139e1565b612a8a565b6005546118459030906118359060ff16600a613910565b6118409060076139e1565b612adb565b6010546001600160a01b031663566390a861185e612870565b84846040518463ffffffff1660e01b815260040161187e9392919061316a565b600060405180830381600087803b15801561189857600080fd5b505af115801561159d573d6000803e3d6000fd5b601160006118b8612870565b6001600160a01b0316815260208101919091526040016000205460ff16156118f25760405162461bcd60e51b815260040161073d90613650565b60006118fc612870565b6001600160a01b031614156119235760405162461bcd60e51b815260040161073d90613619565b60105442906001600160a01b0316638e7ea60e61193e612870565b836040518363ffffffff1660e01b815260040161195c9291906131d5565b600060405180830381600087803b15801561197657600080fd5b505af115801561198a573d6000803e3d6000fd5b5050601054600092506001600160a01b03169050639618a27b6119ab612870565b846040518363ffffffff1660e01b81526004016119c99291906131d5565b60206040518083038186803b1580156119e157600080fd5b505afa1580156119f5573d6000803e3d6000fd5b505050506040513d601f19601f82011682018060405250810190611a1991906130c1565b905060008111611a3b5760405162461bcd60e51b815260040161073d90613687565b6010546040805163279b0e4d60e11b815290516000926001600160a01b031691634f361c9a916004808301926020929190829003018186803b158015611a8057600080fd5b505afa158015611a94573d6000803e3d6000fd5b505050506040513d601f19601f82011682018060405250810190611ab891906130c1565b90506000611ac46111e1565b90506000611ae182610e82856a52b7d2dcc80cd2e4000000612858565b905080341015611b035760405162461bcd60e51b815260040161073d90613333565b6010546000906001600160a01b0316632c24ebbb611b1f612870565b89896040518463ffffffff1660e01b8152600401611b3f9392919061316a565b60206040518083038186803b158015611b5757600080fd5b505afa158015611b6b573d6000803e3d6000fd5b505050506040513d601f19601f82011682018060405250810190611b8f91906130c1565b6010549091506001600160a01b03166302a33b49611bab612870565b89896040518463ffffffff1660e01b8152600401611bcb9392919061316a565b600060405180830381600087803b158015611be557600080fd5b505af1158015611bf9573d6000803e3d6000fd5b5050600d54611c1692506001600160a01b031690506108d2612870565b60105460408051631623025760e01b815290516000926001600160a01b0316916316230257916004808301926020929190829003018186803b158015611c5b57600080fd5b505afa158015611c6f573d6000803e3d6000fd5b505050506040513d601f19601f82011682018060405250810190611c9391906130c1565b9050601060009054906101000a90046001600160a01b03166001600160a01b031663076514436040518163ffffffff1660e01b8152600401600060405180830381600087803b158015611ce557600080fd5b505af1158015611cf9573d6000803e3d6000fd5b505050506000811115611d2357600d54600c54611d23916001600160a01b03908116911683612928565b611d2b6111d2565b6001600160a01b03166108fc349081150290604051600060405180830381858888f19350505050158015611d63573d6000803e3d6000fd5b505050505050505050565b600060116000611d7c612870565b6001600160a01b0316815260208101919091526040016000205460ff1615611db65760405162461bcd60e51b815260040161073d90613650565b60105442906001600160a01b0316638b19a59e611dd1612870565b85846040518463ffffffff1660e01b8152600401610d159392919061316a565b611df9612870565b6001600160a01b0316611e0a6111d2565b6001600160a01b031614611e305760405162461bcd60e51b815260040161073d90613573565b60105460405163c1faa42160e01b81526001600160a01b039091169063c1faa421906111a49084906004016137b9565b611e68612870565b6001600160a01b0316611e796111d2565b6001600160a01b031614611e9f5760405162461bcd60e51b815260040161073d90613573565b601054604051630c020cad60e31b81526001600160a01b03909116906360106568906111a49084906004016137b9565b60116000611edb612870565b6001600160a01b0316815260208101919091526040016000205460ff1615611f155760405162461bcd60e51b815260040161073d90613650565b6000611f1f612870565b6001600160a01b03161415611f465760405162461bcd60e51b815260040161073d90613362565b6000611f506111e1565b90506000611f62836305f5e1006139e1565b90506000611f7f83610e826008548561285890919063ffffffff16565b905080341015611fa15760405162461bcd60e51b815260040161073d90613421565b611fa96111d2565b6001600160a01b03166108fc349081150290604051600060405180830381858888f19350505050158015611fe1573d6000803e3d6000fd5b506116a730611fee612870565b86612928565b6001600160a01b03918216600090815260026020908152604080832093909416825291909152205490565b6011600061202b612870565b6001600160a01b0316815260208101919091526040016000205460ff16156120655760405162461bcd60e51b815260040161073d90613650565b600061206f612870565b6001600160a01b031614156120965760405162461bcd60e51b815260040161073d906136f5565b806120a261048d612870565b10156120c05760405162461bcd60e51b815260040161073d906135a8565b60006120d76009548361286490919063ffffffff16565b90506120e382826129ef565b91506120f76120f0612870565b3084612928565b612114612102612870565b600c546001600160a01b031683612928565b61213f307f000000000000000000000000000000000000000000000000000000000000000084612874565b604080516002808252606082018352600092602083019080368337019050509050308160008151811061218257634e487b7160e01b600052603260045260246000fd5b60200260200101906001600160a01b031690816001600160a01b0316815250507f00000000000000000000000000000000000000000000000000000000000000006001600160a01b031663ad5c46486040518163ffffffff1660e01b815260040160206040518083038186803b1580156121fb57600080fd5b505afa15801561220f573d6000803e3d6000fd5b505050506040513d601f19601f820116820180604052508101906122339190612e29565b8160018151811061225457634e487b7160e01b600052603260045260246000fd5b6001600160a01b0392831660209182029290920101527f00000000000000000000000000000000000000000000000000000000000000001663791ac9478460008461229d612870565b426040518663ffffffff1660e01b81526004016122be9594939291906137c2565b600060405180830381600087803b1580156122d857600080fd5b505af11580156122ec573d6000803e3d6000fd5b50505050505050565b6122fd612870565b6001600160a01b031661230e6111d2565b6001600160a01b0316146123345760405162461bcd60e51b815260040161073d90613573565b6001600160a01b03811661235a5760405162461bcd60e51b815260040161073d90613399565b6108d8816129fb565b606060116000612371612870565b6001600160a01b0316815260208101919091526040016000205460ff16156123ab5760405162461bcd60e51b815260040161073d90613650565b60105460405163f99d30d760e01b815242916000916001600160a01b039091169063f99d30d7906123e0908790600401613132565b60206040518083038186803b1580156123f857600080fd5b505afa15801561240c573d6000803e3d6000fd5b505050506040513d601f19601f8201168201806040525081019061243091906130c1565b601054604051639618a27b60e01b81529192506000916001600160a01b0390911690639618a27b9061246890889087906004016131d5565b60206040518083038186803b15801561248057600080fd5b505afa158015612494573d6000803e3d6000fd5b505050506040513d601f19601f820116820180604052508101906124b891906130c1565b905060008167ffffffffffffffff8111156124e357634e487b7160e01b600052604160045260246000fd5b60405190808252806020026020018201604052801561251c57816020015b612509612d94565b8152602001906001900390816125015790505b5090506000805b8481101561284c5760105460405163d7fad4cf60e01b81526001600160a01b039091169063d7fad4cf9061255f908b9085908b90600401613229565b60206040518083038186803b15801561257757600080fd5b505afa15801561258b573d6000803e3d6000fd5b505050506040513d601f19601f820116820180604052508101906125af9190612fdb565b15156001141561283a57601054604051637cdb88f760e01b81526000916001600160a01b031690637cdb88f7906125ec908c9086906004016131d5565b60006040518083038186803b15801561260457600080fd5b505afa158015612618573d6000803e3d6000fd5b505050506040513d6000823e601f3d908101601f191682016040526126409190810190613036565b601054604051633f8a179160e21b81529192506000916001600160a01b039091169063fe285e4490612678908d9087906004016131d5565b60206040518083038186803b15801561269057600080fd5b505afa1580156126a4573d6000803e3d6000fd5b505050506040513d601f19601f820116820180604052508101906126c891906130c1565b60105460405163c718325160e01b81529192506000916001600160a01b039091169063c718325190612702908e9088908e90600401613229565b60206040518083038186803b15801561271a57600080fd5b505afa15801561272e573d6000803e3d6000fd5b505050506040513d601f19601f8201168201806040525081019061275291906130c1565b60105460405163020d6f8f60e31b81529192506000916001600160a01b039091169063106b7c789061278a908f9089906004016131d5565b60206040518083038186803b1580156127a257600080fd5b505afa1580156127b6573d6000803e3d6000fd5b505050506040513d601f19601f820116820180604052508101906127da91906130c1565b905060405180608001604052808581526020018481526020018381526020018281525087878151811061281d57634e487b7160e01b600052603260045260246000fd5b6020908102919091010152612833866001612af7565b9550505050505b8061284481613aa0565b915050612523565b50909695505050505050565b6000610a0382846139e1565b6000610a0382846138aa565b3390565b6001600160a01b03831661289a5760405162461bcd60e51b815260040161073d9061372a565b6001600160a01b0382166128c05760405162461bcd60e51b815260040161073d906133df565b6001600160a01b0380841660008181526002602090815260408083209487168084529490915290819020849055517f8c5be1e5ebec7d5bd14f71427d1e84f3dd0314c0f7b2291e5b200ac8c7c3b9259061291b9085906137b9565b60405180910390a3505050565b6001600160a01b03831661294e5760405162461bcd60e51b815260040161073d906136b0565b6001600160a01b0382166129745760405162461bcd60e51b815260040161073d906132f0565b6001600160a01b038316600090815260016020526040902054818110156129ad5760405162461bcd60e51b815260040161073d90613458565b6001600160a01b038085166000908152600160205260408082208585039055918516815290812080548492906129e4908490613892565b909155505050505050565b6000610a038284613a00565b600080546001600160a01b038381166001600160a01b0319831681178455604051919092169283917f8be0079c531659141344cd1fd0a4f28419497f9722a3daafe3b4186f6b6457e09190a35050565b6000612a58826002612864565b90506000612a6683836129ef565b905047612a7283612b03565b6000612a7e47836129ef565b9050610c708382612cb8565b47612a9482612b03565b6000612aa047836129ef565b600c546040519192506001600160a01b03169082156108fc029083906000818181858888f193505050501580156116a7573d6000803e3d6000fd5b600d54612af39083906001600160a01b031683612928565b5050565b6000610a038284613892565b6040805160028082526060820183526000926020830190803683370190505090503081600081518110612b4657634e487b7160e01b600052603260045260246000fd5b60200260200101906001600160a01b031690816001600160a01b0316815250507f00000000000000000000000000000000000000000000000000000000000000006001600160a01b031663ad5c46486040518163ffffffff1660e01b815260040160206040518083038186803b158015612bbf57600080fd5b505afa158015612bd3573d6000803e3d6000fd5b505050506040513d601f19601f82011682018060405250810190612bf79190612e29565b81600181518110612c1857634e487b7160e01b600052603260045260246000fd5b60200260200101906001600160a01b031690816001600160a01b031681525050612c63307f000000000000000000000000000000000000000000000000000000000000000084612874565b60405163791ac94760e01b81526001600160a01b037f0000000000000000000000000000000000000000000000000000000000000000169063791ac9479061187e9085906000908690309042906004016137c2565b612ce3307f000000000000000000000000000000000000000000000000000000000000000084612874565b7f00000000000000000000000000000000000000000000000000000000000000006001600160a01b031663f305d719823085600080612d206111d2565b426040518863ffffffff1660e01b8152600401612d42969594939291906131ee565b6060604051808303818588803b158015612d5b57600080fd5b505af1158015612d6f573d6000803e3d6000fd5b50505050506040513d601f19601f82011682018060405250810190610c7091906130d9565b6040518060800160405280606081526020016000815260200160008152602001600081525090565b600082601f830112612dcc578081fd5b8135612ddf612dda8261386a565b613840565b818152846020838601011115612df3578283fd5b816020850160208301379081016020019190915292915050565b600060208284031215612e1e578081fd5b8135610a0381613ae7565b600060208284031215612e3a578081fd5b8151610a0381613ae7565b60008060408385031215612e57578081fd5b8235612e6281613ae7565b91506020830135612e7281613ae7565b809150509250929050565b600080600060608486031215612e91578081fd5b8335612e9c81613ae7565b92506020840135612eac81613ae7565b929592945050506040919091013590565b60008060408385031215612ecf578182fd5b8235612eda81613ae7565b9150602083013567ffffffffffffffff811115612ef5578182fd5b612f0185828601612dbc565b9150509250929050565b60008060408385031215612f1d578182fd5b8235612f2881613ae7565b946020939093013593505050565b60008060408385031215612f48578182fd5b823567ffffffffffffffff80821115612f5f578384fd5b818501915085601f830112612f72578384fd5b8135602082821115612f8657612f86613ad1565b612f938182840201613840565b8281528181019350848201875b84811015612fc957612fb78b8584358a0101612dbc565b86529483019490830190600101612fa0565b50909997909101359750505050505050565b600060208284031215612fec578081fd5b81518015158114610a03578182fd5b60006020828403121561300c578081fd5b813567ffffffffffffffff811115613022578182fd5b61302e84828501612dbc565b949350505050565b600060208284031215613047578081fd5b815167ffffffffffffffff81111561305d578182fd5b8201601f8101841361306d578182fd5b805161307b612dda8261386a565b81815285602083850101111561308f578384fd5b6130a0826020830160208601613a17565b95945050505050565b6000602082840312156130ba578081fd5b5035919050565b6000602082840312156130d2578081fd5b5051919050565b6000806000606084860312156130ed578283fd5b8351925060208401519150604084015190509250925092565b6000815180845261311e816020860160208601613a17565b601f01601f19169290920160200192915050565b6001600160a01b0391909116815260200190565b6001600160a01b038316815260406020820181905260009061302e90830184613106565b6001600160a01b038416815260606020820181905260009061318e90830185613106565b9050826040830152949350505050565b6001600160a01b03851681526080602082018190526000906131c290830186613106565b6040830194909452506060015292915050565b6001600160a01b03929092168252602082015260400190565b6001600160a01b039687168152602081019590955260408501939093526060840191909152909216608082015260a081019190915260c00190565b6001600160a01b039390931683526020830191909152604082015260600190565b60208082528251828201819052600091906040908185019080840286018301878501865b838110156132c457603f1989840301855281516080815181865261329482870182613106565b838b0151878c0152898401518a88015260609384015193909601929092525050938601939086019060010161326e565b509098975050505050505050565b901515815260200190565b600060208252610a036020830184613106565b60208082526023908201527f45524332303a207472616e7366657220746f20746865207a65726f206164647260408201526265737360e81b606082015260800190565b6020808252601590820152742737ba1032b737bab3b41031b630b4b6903332b29760591b604082015260600190565b6020808252601f908201527f5a65726f20616464726573732074727920746f2062757920746f6b656e732e00604082015260600190565b60208082526026908201527f4f776e61626c653a206e6577206f776e657220697320746865207a65726f206160408201526564647265737360d01b606082015260800190565b60208082526022908201527f45524332303a20617070726f766520746f20746865207a65726f206164647265604082015261737360f01b606082015260800190565b6020808252601d908201527f4e6f7420656e6f75676820636f737420746f2062757920746f6b656e73000000604082015260600190565b60208082526026908201527f45524332303a207472616e7366657220616d6f756e7420657863656564732062604082015265616c616e636560d01b606082015260800190565b60208082526010908201526f2737ba1032b737bab3b41031b7b9ba1760811b604082015260600190565b6020808252601290820152714e6f7420656e6f7567682062616c616e636560701b604082015260600190565b6020808252601e908201527f796f7520646f6e2774206861766520656e6f7567682062616c616e63652e0000604082015260600190565b60208082526028908201527f45524332303a207472616e7366657220616d6f756e74206578636565647320616040820152676c6c6f77616e636560c01b606082015260800190565b6020808252818101527f4f776e61626c653a2063616c6c6572206973206e6f7420746865206f776e6572604082015260600190565b6020808252601390820152722737ba1032b737bab3b4103130b630b731b29760691b604082015260600190565b60208082526024908201527f74727920746f20637265617465207472656520666f72207a65726f206164647260408201526332b9b99760e11b606082015260800190565b6020808252601e908201527f546f6b656e207265776172647320746f207a65726f20616464726573732e0000604082015260600190565b60208082526017908201527f54686973206163636f756e7420697320626c6f636b6564000000000000000000604082015260600190565b6020808252600f908201526e2737902a2922a29027bbb732b9399760891b604082015260600190565b60208082526025908201527f45524332303a207472616e736665722066726f6d20746865207a65726f206164604082015264647265737360d81b606082015260800190565b6020808252818101527f5a65726f20616464726573732074727920746f2073656c6c20746f6b656e732e604082015260600190565b60208082526024908201527f45524332303a20617070726f76652066726f6d20746865207a65726f206164646040820152637265737360e01b606082015260800190565b6020808252602b908201527f43616e277420706179206d61696e74656e616365206665652066726f6d207a6560408201526a39379030b2323932b9b99760a91b606082015260800190565b90815260200190565b600060a082018783526020878185015260a0604085015281875180845260c0860191508289019350845b818110156138115784516001600160a01b0316835293830193918301916001016137ec565b50506001600160a01b03969096166060850152505050608001529392505050565b60ff91909116815260200190565b60405181810167ffffffffffffffff8111828210171561386257613862613ad1565b604052919050565b600067ffffffffffffffff82111561388457613884613ad1565b50601f01601f191660200190565b600082198211156138a5576138a5613abb565b500190565b6000826138c557634e487b7160e01b81526012600452602481fd5b500490565b80825b60018086116138dc5750613907565b8187048211156138ee576138ee613abb565b808616156138fb57918102915b9490941c9380026138cd565b94509492505050565b6000610a0360001960ff85168460008261392c57506001610a03565b8161393957506000610a03565b816001811461394f576002811461395957613986565b6001915050610a03565b60ff84111561396a5761396a613abb565b6001841b91508482111561398057613980613abb565b50610a03565b5060208310610133831016604e8410600b84101617156139b9575081810a838111156139b4576139b4613abb565b610a03565b6139c684848460016138ca565b8086048211156139d8576139d8613abb565b02949350505050565b60008160001904831182151516156139fb576139fb613abb565b500290565b600082821015613a1257613a12613abb565b500390565b60005b83811015613a32578181015183820152602001613a1a565b838111156116a75750506000910152565b600281046001821680613a5757607f821691505b60208210811415613a7857634e487b7160e01b600052602260045260246000fd5b50919050565b600061ffff80831681811415613a9657613a96613abb565b6001019392505050565b6000600019821415613ab457613ab4613abb565b5060010190565b634e487b7160e01b600052601160045260246000fd5b634e487b7160e01b600052604160045260246000fd5b6001600160a01b03811681146108d857600080fdfea264697066735822122011564a71b31d62c377be5b3cf0632a89dc5619c6bad9d9672725841fd339b99b64736f6c63430008000033",
  "linkReferences": {},
  "deployedLinkReferences": {}
}